{
  "_format": "hh-sol-artifact-1",
  "contractName": "Uniswap2",
  "sourceName": "contracts/ImplementSwap.sol",
  "abi": [
    {
      "inputs": [
        {
          "internalType": "address",
          "name": "_uniswap",
          "type": "address"
        }
      ],
      "stateMutability": "nonpayable",
      "type": "constructor"
    },
    {
      "inputs": [
        {
          "internalType": "address",
          "name": "token1",
          "type": "address"
        },
        {
          "internalType": "address",
          "name": "token2",
          "type": "address"
        },
        {
          "internalType": "uint256",
          "name": "amountIn",
          "type": "uint256"
        },
        {
          "internalType": "uint256",
          "name": "amountOutMin",
          "type": "uint256"
        },
        {
          "internalType": "uint256",
          "name": "deadline",
          "type": "uint256"
        }
      ],
      "name": "swapTokensForETH",
      "outputs": [],
      "stateMutability": "nonpayable",
      "type": "function"
    },
    {
      "inputs": [],
      "name": "uniswap",
      "outputs": [
        {
          "internalType": "contract IUniswapV2Router02",
          "name": "",
          "type": "address"
        }
      ],
      "stateMutability": "view",
      "type": "function"
    }
  ],
  "bytecode": "0x608060405234801561001057600080fd5b506040516104693803806104698339818101604052602081101561003357600080fd5b5051600080546001600160a01b039092166001600160a01b0319909216919091179055610404806100656000396000f3fe608060405234801561001057600080fd5b50600436106100365760003560e01c80632681f7e41461003b57806362bad34d1461005f575b600080fd5b6100436100a3565b604080516001600160a01b039092168252519081900360200190f35b6100a1600480360360a081101561007557600080fd5b506001600160a01b038135811691602081013590911690604081013590606081013590608001356100b2565b005b6000546001600160a01b031681565b604080516323b872dd60e01b81523360048201523060248201526044810185905290516001600160a01b038716916323b872dd9160648083019260209291908290030181600087803b15801561010757600080fd5b505af115801561011b573d6000803e3d6000fd5b505050506040513d602081101561013157600080fd5b5050600080546040805163095ea7b360e01b81526001600160a01b0392831660048201526024810187905290519188169263095ea7b3926044808401936020939083900390910190829087803b15801561018a57600080fd5b505af115801561019e573d6000803e3d6000fd5b505050506040513d60208110156101b457600080fd5b5050604080516002808252606080830184529260208301908036833701905050905085816000815181106101e457fe5b60200260200101906001600160a01b031690816001600160a01b031681525050848160018151811061021257fe5b60200260200101906001600160a01b031690816001600160a01b0316815250506000809054906101000a90046001600160a01b03166001600160a01b03166338ed173985858433876040518663ffffffff1660e01b81526004018086815260200185815260200180602001846001600160a01b03166001600160a01b03168152602001838152602001828103825285818151815260200191508051906020019060200280838360005b838110156102d35781810151838201526020016102bb565b505050509050019650505050505050600060405180830381600087803b1580156102fc57600080fd5b505af1158015610310573d6000803e3d6000fd5b505050506040513d6000823e601f3d908101601f19168201604052602081101561033957600080fd5b810190808051604051939291908464010000000082111561035957600080fd5b90830190602082018581111561036e57600080fd5b825186602082028301116401000000008211171561038b57600080fd5b82525081516020918201928201910280838360005b838110156103b85781810151838201526020016103a0565b505050509050016040525050505050505050505056fea2646970667358221220eceba844669c7f255753631a23138795244cde4a8b73ada86d224ac70d78159264736f6c63430006060033",
  "linkReferences": {},
  "deployedLinkReferences": {}
}